:020000040000FA
:1000000002002EE4F5C8538ECFC39FFFE49EF5CBCC
:100010008FCA74FFF5CDF5CCD2ADD2CA2275A5FF3B
:0700200075D5FF75E24022D7
:10002B0002011F787FE4F6D8FD758134020075025A
:10003B00014AE493A3F8E493A34003F68001F2088A
:10004B00DFF48029E493A3F85407240CC8C333C40A
:10005B00540F4420C8834004F456800146F6DFE475
:10006B00800B01020408102040809000BAE47E014E
:10007B009360BCA3FF543F30E509541FFEE493A3E8
:10008B0060010ECF54C025E060A840B8E493A3FAFA
:10009B00E493A3F8E493A3C8C582C8CAC583CAF086
:1000AB00A3C8C582C8CAC583CADFE9DEE780BE2004
:1000BB00290B868686868686865555555555555504
:1000CB00353535353535898989898989895A5A5A1A
:1000DB005A5A5A5A3A3A3A3A3A3A3A010800020903
:1000EB0000000043B283E4F5B943B980F534AF3473
:1000FB000534EFC394FF40F643B940E4F534AF3415
:10010B000534EFC394FF40F6E5B930E5FB75A90262
:10011B0075EF0422C0E0C0D075D000C000C007C28C
:10012B00CFAF080508740B2FF8E6F590E508C394DC
:10013B00284003750800D007D000D0D0D0E0325350
:10014B00D9BF1200EE12001D7F0A7E00120003D2EF
:03015B00AF80FE74
:00000001FF
