:020000040000FA
:10000000020FD0E5576003D2A3220548E548AE476A
:100010007002054714C39405EE648094804007E4A1
:10002000F547F548B2A3228F57222202192A8F459D
:100030002280FE021B8F759681E59620E7FBE597EF
:10004000A2E122020A3CBB010689828A83E0225097
:1000500002E722BBFE02E32289828A83E49322BB69
:10006000010CE58229F582E5833AF583E02250060A
:10007000E92582F8E622BBFE06E92582F8E222E5C0
:100080008229F582E5833AF583E49322BB01068950
:10009000828A83F0225002F722BBFE01F322F8BBD2
:1000A000010DE58229F582E5833AF583E8F02250D7
:1000B00006E92582C8F622BBFE05E92582C8F222A0
:1000C000BB010A89828A83E0F5F0A3E0225006870B
:1000D000F009E71922BBFE07E3F5F009E3192289CD
:1000E000828A83E493F5F074019322BB0110E582C8
:1000F00029F582E5833AF583E0F5F0A3E022500983
:10010000E92582F886F008E622BBFE0AE92582F896
:10011000E2F5F008E222E5832AF583E993F5F0A3FE
:10012000E99322BB010A89828A83F0E5F0A3F022D9
:100130005006F709A7F01922BBFE06F3E5F009F314
:100140001922E88FF0A4CC8BF0A42CFCE98EF0A44B
:100150002CFC8AF0EDA42CFCEA8EF0A4CDA8F08B48
:10016000F0A42DCC3825F0FDE98FF0A42CCD35F08E
:10017000FCEB8EF0A4FEA9F0EB8FF0A4CFC5F02E1F
:10018000CD39FEE43CFCEAA42DCE35F0FDE43CFC88
:1001900022ECF0A3EDF0A3EEF0A3EFF022A882850D
:1001A00083F0D083D0821201B41201B41201B412D0
:1001B00001B4E473E493A3C583C5F0C583C8C582C5
:1001C000C8F0A3C583C5F0C583C8C582C822BB01DA
:1001D0000789828A8302022D5005E9F8020224BBB6
:1001E000FE05E9F802023689828A8302023FBB01DA
:1001F0000DE58229F582E5833AF58302022D500749
:10020000E92582F8020224BBFE07E92582F80202F2
:1002100036E58229F582E5833AF58302023F8A8337
:100220008982E473E6FB08E6FA08E6F922E0FBA31C
:10023000E0FAA3E0F922E2FB08E2FA08E2F922E49C
:1002400093FB740193FA740293F92290008FEBF000
:10025000A3EAF0A3E9F090001112005F900043F0D0
:10026000E490009CF090009CE0FF7C007BFF244C1D
:10027000F9EC341CFA120046FEEF7B012400F9EC85
:100280003400FAEE12008C90009CE004F0E0B4120E
:10029000D4E490009CF090009CE0FF901C5E93FEE4
:1002A00074122FF582E43400F583EEF090009CE0A8
:1002B00004F0E0B420E090008FE0FBA3E0FAA3E0BC
:1002C000F91200C0FAE5F0FFEAFE900008EEF0A394
:1002D000EFF090008FA3E0FA9000021200EBFAE535
:1002E000F0FFEAFE90000AEEF0A3EFF09000327407
:1002F000FFF0A3741CF0A3747EF090008FA3E0FACB
:10030000A3E09000041201EEE924FFF9EA34FFFAB9
:10031000900035EBF0A3EAF0A3E9F090008FE0FB4A
:10032000A3E0FAA3E0F99000071201EEE924FFF937
:10033000EA34FFFA900038EBF0A3EAF0A3E9F0907A
:10034000008FE0FBA3E0FAA3E0F990000A1201EEAF
:10035000E924FFF9EA34FFFA90003BEBF0A3EAF05E
:10036000A3E9F090008FE0FBA3E0FAA3E0F990008E
:100370000D12005FFFC394FA500590001AEFF09041
:10038000008FE0FBA3E0FAA3E0F990000F1200EB6E
:10039000FAE5F0FFEAFE90000CEEF0A3EFF090001B
:1003A0008FA3E0FA90000E12005F900019F0900009
:1003B000927401F0A37400F0A37400F0A37401F030
:1003C000A37400F0A37412F0A37401F0A37400F0FE
:1003D000A37432F0A37404F0E4900057F090003E50
:1003E00012019D00000000E4900042F07B017A00C1
:1003F0007992020D7F53D9BF1219F512002A121BF0
:100400000AE4FFFE121A10121B28121B1AD2AF7F29
:100410000112002E7B007A00790812024B7BFF7AD2
:100420001379FE121AD47F0212002E7D027F647EA1
:1004300000121BF112166CE4FDFFFE121BF17F038C
:10044000020512E558146029147003020501240204
:100450006003020518C292121A6F2091FD7F1612D6
:1004600019202091FDE4FD7F02121AC17558018008
:10047000D27F141219202091FDE558B401C52091B6
:10048000FD7FFF121920EF3395E08F25F524F5232A
:10049000F522FEAC2212190BE4FCFDFEE5252FF53A
:1004A00025EE3524F524ED3523F523EC3522F52210
:1004B000AF25AE24FC12190BE4FCFDFEE5252FF55B
:1004C00025EE3524F524ED3523F523EC3522F522F0
:1004D000AF25AE24AD23FC90006812019190006C12
:1004E000E07F03B402027F0090006CEFF0900063A5
:1004F0007401F012173A20A080D2A0121601020453
:10050000797B017A00796D12170812173A75580134
:100510007F0412002E020443E4F558020443E4FD74
:10052000FC753EFF785FE66480600302062B78610D
:10053000E6FE08E6F53AEEFFE46003020609EF2462
:10054000FE602A14604E24026003020609E53A6048
:1005500003020609787D860308E6FA08E6F98B3B74
:100560008A3CF53D1200467C00FD020609E53A6032
:10057000030206097880860308E6FA08E6F98B3B51
:100580008A3CF53D9000021200EBFAE5F0FFEAFC30
:10059000EFFD80757883860308E6FA08E6F975F0C2
:1005A00003E53AA4F58285F0831201EE8B3B8A3C89
:1005B000893DE53A700BFC7D047867E65480F6804F
:1005C000487863E6FE08E6FF4E600AEF64097003B0
:1005D000EE64047034E53AC3785C96502CAB3BAAC9
:1005E0003CA93D90000112005F7C00FD12004654C2
:1005F0007FFF7867E654804FFFF67401253DF53D97
:10060000E4353CF53CEF4480F6ED4C601E7865E641
:10061000FE08E6FFD3ED9FEC9E4004AC06AD07ABB1
:100620003BAA3CA93D1219A2E4F53EAF3E22786EEA
:10063000E6139203786BE6FE08E6FFC39440EE945F
:100640000040047F4080008F3985393A7867E6FFA3
:10065000547F64017068EF30E72608860308E6FAE5
:1006600008E6F9C2047D02E4FF1211D5786A74022B
:1006700026F618E436F6153915397867E6547FF60C
:10068000E4F53BE539C313FFE53BC39F504D786864
:10069000860308E6FA08E6F9C2047D01E4FF1211B8
:1006A000D5786A740126F618E436F67BFF7A1C7951
:1006B00082C2047D01E4FF1211D5053B80C5786834
:1006C000860308E6FA08E6F9C204AD39E4FF121120
:1006D000D5786AE53926F618E436F6786EE654FBE6
:1006E000F6C3786CE6953AFF18E69400FEF608EF3C
:1006F000F64E701EE53A6440601875961175970ABB
:10070000E59620E7FB786D7601E47867F6786EF67B
:10071000800B759611759702E59620E7FB30031460
:10072000E53AFB7A00786BE6F54008E6F541E4FD32
:10073000FF120C3A22C2037F01121BA5121B6A5042
:1007400015759694E59620E7FB5397BFE59620E74D
:100750000302080280F6121B834003020802121BE8
:10076000FF8F39787BE66403600A08E64402F67579
:100770003AF9806DC3787AE6953918E69400500E00
:10078000787B760108E64402F6753AF28053787673
:10079000860308E6FA08E6F9AD397F0112144878B5
:1007A0007CE654FDF6AF397E00C3787AE69FF618F2
:1007B000E69EF618EF26F618EE36F6787AE6184634
:1007C0006006E53964406006787B7601D203E4F583
:1007D0003A759694E59620E7FB5397FEE59620E759
:1007E000FB787CE630E01B30030354FEF6E539FB72
:1007F0007A007879E6F54008E6F541AD3A7F0212D5
:100800000C3A22753AFF7861E6FC08E6FDEC6003DD
:100810000208C6785FE6541F60030208C67866E6E1
:10082000184660030208C618E6184660030208C6A8
:10083000785DE664047048ED4C60197880860308A2
:10084000E6FA08E6F990000512005F786266700229
:1008500018E670727862E6785BF67880860308E6C0
:10086000FA08E6F990000512005F786266700218D7
:10087000E67050D20312187D7F0612179C804478D0
:100880005DE6640670407861E6FE08E6FF4E60179C
:100890007880860308E6FA08E6F990000512005F02
:1008A000B50723E4B5061F7862E6785BF67862E662
:1008B0001846700A7F0412179C1218C98005C203DB
:1008C00012187DE4F53AAF3A228F2A8B2B8A2C89B5
:1008D0002DE52A601514601280007BFF7A1779CC11
:1008E0007D7B7C021200317FFC22E52A600A785D64
:1008F000E6640660037FF722E52A75F007A4246802
:10090000F9AF01EF2405F8E6FE64016009EE7FFE11
:10091000B405027FFB22E5E6A2E1920153E6FDAABF
:100920002CA92DA807A62B08A60208A601EF2403D0
:10093000F8A62E08A62FEF2405F87602A200E433CD
:100940005401FEEF2406F8E654FE4EF6E52A146044
:100950000B04702C786EE64404F68024D3E52F94C3
:1009600040E52E940040047D408004AF2FAD077811
:100970006F860308E6FA08E6F9D2047F011211D562
:1009800030010343E6027F0022753AFF7866E66491
:100990000218466003020A397862E61846600302CC
:1009A0000A39785FE6FF20E703020A39785DE6C37B
:1009B00094045003020A39E4F51AF51BEF541F148E
:1009C0006018146023240270617864E61846705A37
:1009D000121BE75052431A01804DC37864E694011C
:1009E00018E694005044803F7863E6FE08E6FFACCA
:1009F00006547F4C7008785DE6B404028029785D67
:100A0000E6B40626EF247F60122480701D787BE612
:100A1000B40606751A01751B00800C7874E6B406DE
:100A200006751A01751B00E4F53AE53A700BFB7A7E
:100A300000791A7D02FC1219A2AF3A22C0E0C0F080
:100A4000C083C082C0D075D000C000C001C002C049
:100A500003C004C005C006C007121BB08F35121BAF
:100A6000BB8F36121BC68F37121BD18F38E535303E
:100A7000E328786EE6FF30E10618E66403600AEFCB
:100A800030E209786DE6B40203433601787CE63043
:100A9000E10818E6B40303433702E53530E20312F8
:100AA0001516E53530E103121BF8E53530E0031289
:100AB0001AF9E53630E103120AEAE53730E10312AC
:100AC0000735E53630E003120CE0AF38121BA5D035
:100AD00007D006D005D004D003D002D001D000D07A
:100AE000D0D082D083D0F0D0E0327F01121BA5128B
:100AF0001B5D5010759611E4F597E59620E703020B
:100B00000B9180F67874E664026003020B917872B0
:100B1000E6FE08E6FFD39440EE940040047F408058
:100B2000008F397E00C37873E69FF618E69EF618AC
:100B3000EF26F618EE36F67875E61392037872E62D
:100B4000FE08E6FFD39400EE94004024D3EF9440D7
:100B5000EE940040047D4080047873E6FD786F8653
:100B60000308E6FA08E6F9D2047F011211D58009DC
:100B70007875E654FEF6187601300315E539FB7AF0
:100B8000007872E6F54008E6F541E4FD7F01120CBD
:100B90003A22753AFF7866E618466003020C377809
:100BA0005FE6541F24FE6003020C377862E61846A5
:100BB0006003020C377863E6FE08E6547FFF4E7050
:100BC0000D785DE6C394044005E4F53A8069C3EF0F
:100BD0009403EE94005060785DE664067059F53A2F
:100BE0007864E6547FFF121BA57864E630E70B7546
:100BF0009611759740E59620E7FB7864E620E718A4
:100C0000759694E59620E7FB5397DFE59620E7FB82
:100C1000439780E59620E7FB7864E6247F600F2405
:100C2000807014787BE66403600D76018009787427
:100C3000E6640260027601AF3A228F3C8D3D8A3E27
:100C40008B3FE53CB40139E53D7035D3E53F940079
:100C5000E53E9400402A90005BE0FBA3E0FAA3E0AD
:100C6000F9E53E853FF012012390003EE0FCA3E051
:100C7000FDA3E0FEA3E04402FFEC90003E120191D0
:100C8000E53CB40239E53D7035D3E53F9400E53EDF
:100C90009400402A90005EE0FBA3E0FAA3E0F9E5AF
:100CA0003E853FF012012390003EE0FCA3E0FDA34F
:100CB000E0FEA3E04404FFEC90003E12019190009E
:100CC00042E030E01790003EE0FCA3E0FDA3E0FE30
:100CD000A3E0FFEC4D4E4F6003121A2AE4FEFF2200
:100CE000E4FF121BA5121B434005121B36501D7555
:100CF0009611E4F597E59620E7FB759611759780B8
:100D0000E59620E7FB786D7601E408F6121B775034
:100D10005F786EE6FF30E3028053786DE664017021
:100D20003E7867F612123F7F5F1213B1BFFD147851
:100D30005FE6FFC4135403700512105C8032121A70
:100D400084802D785FE620E727786DE664036020D5
:100D50007866E618466019786EE64408F6801178E1
:100D60006DE6B40305120E198006786EE64402F6AD
:100D7000786DE6B40208121B50400312062E228B37
:100D8000268A27892853E6FD121C05E4FF745B2F91
:100D9000F8E4F60FBF2BF6AB26AA27A9281201CE3E
:100DA000787DA60308A60208A601AB26AA27A928D3
:100DB0009000031201EE7880A60308A60208A6019F
:100DC000AB26AA27A9289000061201EE7883A60375
:100DD00008A60208A601AB26AA27A9289000091296
:100DE000005F785CF653A98F43D7207596017597FD
:100DF00008E59620E7FB75960B75970FE59620E7BB
:100E0000FB121B9A785D760343E60275960175978F
:100E100001E59620E7FB7F0022786EE6139203122D
:100E20001BDC8F39C3786CE69F18E69400500E786F
:100E30006D760108E64402F6753AF2805A786886C3
:100E40000308E6FA08E6F9AD39E4FF121448AF39B1
:100E50007E00786AEF26F618EE36F6C3786CE69FC9
:100E6000FF18E69EFEF608EFF6E4F53AEF4E701C2A
:100E7000E53964406016759611759748E59620E748
:100E8000FB786D760108E654FEF6800B75961175B9
:100E90009740E59620E7FB300315E539FB7A0078AB
:100EA0006BE6F54008E6F541AD3AE4FF120C3A2254
:100EB0008F2A8B2B8A2C892DE52A601624FE60123E
:100EC00080007BFF7A1779CC7D1A7C011200317F7C
:100ED000FC22E52A600A785DE6640660037FF7225B
:100EE000E52A75F007A42468F9AF01EF2405F8E6B8
:100EF000FE64016009EE7FFEB405027FFB22E5E699
:100F0000A2E1920153E6FDAA2CA92DA807A62B0861
:100F1000A60208A601EF2403F8A62E08A62FEF24A8
:100F200005F87603A200E4335401FEEF2406F8E648
:100F300054FE4EF654F7F630010343E6027F0022DA
:100F4000753AFF7866E618466003020FCD785FE6D3
:100F5000541F24FE70777863E6FE08E6547FFF4E48
:100F6000700D785DE6C394044005E4F53A805EC3F5
:100F7000EF9403EE940050557862E61846704E7870
:100F80005DE664067047F53A7864E6547FFF121B0D
:100F9000A57864E630E70B759611759710E59620F5
:100FA000E7FB7864E620E710759694E59620E7FB6A
:100FB000439720E59620E7FB7864E6247F600A24C7
:100FC00080700A787B7606800478747606AF3A22C1
:100FD000787FE4F6D8FD7581850210170203F5E4E9
:100FE00093A3F8E493A34003F68001F208DFF480B2
:100FF00029E493A3F85407240CC8C333C4540F4402
:1010000020C8834004F456800146F6DFE4800B01DB
:101010000204081020408090135CE47E019360BCC1
:10102000A3FF543F30E509541FFEE493A360010E73
:10103000CF54C025E060A840B8E493A3FAE493A39A
:10104000F8E493A3C8C582C8CAC583CAF0A3C8C5BB
:1010500082C8CAC583CADFE9DEE780BEE4F5397815
:1010600060E6B40C00506A90106EF82828730210E5
:10107000920210990210D10210A00210D10210A702
:101080000210AE0210D10210B50210BC0210C30251
:1010900010CA1209898F39803B120B928F39803424
:1010A000120F408F39802D1212A38F39802612051E
:1010B0001E8F39801F12148F8F3980181208038FEA
:1010C0003980111215558F39800A12176B8F3980AC
:1010D000037539FFE4FF121BA5E539B4FF03121AAB
:1010E00084AF3922AE07E4FB121BA5300513A80616
:1010F00074107E00088005C333CE33CED8F9FF804C
:1011000013AF0674207E00A807088005C333CE33D2
:10111000CED8F9FFD3ED9FEC9E50034303803006F9
:1011200003430340300420430320300503430304FA
:10113000759611759740E59620E7FB7596128B978B
:10114000E59630E72580F9759614759780E5962029
:10115000E7FB7596158B97E59620E7FB20050B7549
:101160009612E4F597E59620E7FB228F3EE4F540E2
:10117000E53E6005C3940340127BFF7A1779CC7D6E
:101180004D7C001200317540FC8041E5E6A2E19201
:101190000453E6FDE53E75F007A42468F9893FE5B0
:1011A0003F2405F8E664016023E53E24FE600A045E
:1011B000700C7F011216A080057F011216D4E53F46
:1011C0002405F87601E53F2406F8E4F630040343ED
:1011D000E602AF40228F3C8D3D8B3E8A3F8940E541
:1011E0009620E7FBE53C4420F596E53E1460132489
:1011F00003601A146020147026AD40AF3D121A9996
:10120000801DAC3FAD40AF3D121A598012AD40AFCA
:101210003D121AAD8009AC3FAD40AF3D121A4230CD
:10122000041CE53CD394004015AF3C121BA57596F9
:1012300091E59620E7FB439701E59620E7FB2275B1
:10124000395FA9397A007B007D08E4FF12144875E4
:101250009611759740E59620E7FBE5392402F8E6FC
:10126000FC08E6FAECFFEAFEE5392402F8A60608D7
:10127000A607E5392404F8E6FC08E6FAECFFEAFEE6
:10128000E5392404F8A60608A607E5392406F8E699
:10129000FC08E6FAECFFEAFEE5392406F8A60608A3
:1012A000A60722753AFF7861E6FE08E6FFC3948040
:1012B000EE9400504D7866E618467046785FE65426
:1012C0001F703F7864E618467038785DE6B4030B0B
:1012D000EF4E60197F0412179C8012785DE6B4040B
:1012E0000F7862E6184670057F0312179CE4F53A02
:1012F000E53A700EF5967862E64480F597E596201B
:10130000E7FBAF3A228F3DAB05BB051790003EE0EF
:10131000FCA3E0FDA3E0FEA3E04480FFEC90003ED0
:10132000120191BB061790003EE0FCA3E0FDA3E094
:10133000FEA3E04440FFEC90003E12019190004279
:10134000E030E01790003EE0FCA3E0FDA3E0FEA348
:10135000E0FFEC4D4E4F6003121A2A22015700C1E4
:1013600088015A0001560001450302470000C109E7
:10137000015900015800C1075700611702002D2DC7
:101380002D0000000000040000000000000000002C
:101390000000024A0017045200000000120810C4A6
:1013A000EA61FF1C06FF1C20FF1C42FA80010000BE
:1013B000007BFDA807E6C41354036402703DE804F3
:1013C000F8E664027035EF2403F9E76402194790E8
:1013D000003E700EE0FCA3E0FDA3E0FEA3E044109D
:1013E000800CE0FCA3E0FDA3E0FEA3E04420FFECC2
:1013F00090003E120191121A2AE4FBAF0322121749
:10140000FC8F298E288D278C26E5295410FFE4FEB9
:10141000FDFCEF600BD20712173A1219DA75580269
:10142000E5295402FFEF600A90006CE0B4010374F8
:1014300002F0E5295404FFE4FEFDFCEF6009900092
:101440007AE0F5581219DA228F3B8D3C8B3D8A3EAB
:10145000893FE53CD394004035E59620E7FBE53B2A
:1014600044E0F596E53D1460112403601824FE70F5
:101470001DAD3FAB3BAF3C021985AC3EAD3FAB3B36
:10148000AF3C0218EAAD3FAB3BAF3C121949227F9B
:10149000FF7864E61846703D18E61846703778669F
:1014A000E664011846702E785FE6FE30E727541F89
:1014B0007023785DE6B404087BFF7A1C7982800C87
:1014C000785DE6B4060F7B007A00795B7D017C00D5
:1014D0001219A2E4FF22120036503A53D7BC53A986
:1014E0008F43A910C204E5C97F0020E7027F01BF36
:1014F000010DD20343C910E4FF0FBF03FC8002C2F9
:101500000343B22012003640F830030353C9EF12F0
:10151000163743D74022786D760178747606787B4B
:10152000760675960F75978FE59620E7FB75960101
:10153000759701E59620E7FB75960B75970FE59675
:1015400020E7FBE5C9A2E650047F0380027F011279
:10155000179C0218547863E6FE08E67DFFC39401E9
:10156000EE9400502B7866E664011846702278628B
:10157000E61846701B785FE6B48115785DE6B40620
:101580000F7BFF7A1C79827D017C001219A2E4FD99
:10159000AF052290008FEBF0A3EAF0A3E9F09000F2
:1015A00094E0F9A3E0FAA3E090005EC9F0A3EAF0AA
:1015B000A3E9F090008FE0FBA3E0FAA3E0F98C2E02
:1015C0008D2FD2007F02120EB02290008FEBF0A37D
:1015D000EAF0A3E9F0900094E0F9A3E0FAA3E09028
:1015E000005BC9F0A3EAF0A3E9F090008FE0FBA351
:1015F000E0FAA3E0F98C2E8D2FD2007F011208C9EA
:10160000227F161219202091FD7D027F02121AC13D
:101610007F611219202091FD7D017F02121AC17F86
:10162000601219202091FDE4FD7F02121AC17F147F
:101630001219202091FD2243B283E5B920E529E467
:10164000F5B943B980FFFE0FBF00010EBE01F8BF20
:10165000F4F543B940E4FEFF0FBF00010EBE01F8F0
:10166000BFF4F5E5B930E5FB53A98F22C292121AF7
:101670006FD292C294121A6FD294C2922091FD7FBF
:10168000161219202091FD7D4F7F02121AC17F0290
:10169000121AE7EF547F644F60057F031200272280
:1016A000121BA5759611759708E59620E7FB7596B0
:1016B00091E59620E7FBE59720E3F3759611759782
:1016C00008E59620E7FB759691E59620E7FBE59700
:1016D00020E3F322121BA5759614759710E596204A
:1016E000E7FB759694E59620E7FBE59720E4F37514
:1016F0009614759710E59620E7FB759694E596206D
:10170000E7FBE59720E4F3228B268A2789287F20B0
:101710001219207F0A121920E4FEAF060EEFC394BF
:101720000B50167FFF121920AB26AA27A9288E82FC
:10173000758300EF12009E80E122900063E558F06F
:10174000900094E54FF0A3E550F0A3E551F07B0144
:101750007A0079617D177C001215CA90006CE060F8
:1017600003B4030690006C7401F0227FFF7864E6F6
:10177000FE7862E6FDEEC394015020785DE6B40683
:101780001A7866E618467013ED7010785FE6541FFD
:10179000FEBE0107C20312187DE4FF228F3B785D75
:1017A000E6F53CC394054009E53B94055003121847
:1017B000C9E53BB40504785EA63C785DA63BE53CF4
:1017C000653B6007AD3BAF3C12130522433A5C47D3
:1017D00049545C6D6375385C66775C73646B5C4C14
:1017E00069625C65666D385F7573625C7372635CB9
:1017F00065666D385F757362642E630090003EE02D
:10180000FCA3E0FDA3E0FEA3E0FF90008F12019196
:1018100090003E12019D0000000090008FE0FCA3AC
:10182000E0FDA3E0FEA3E0FF22AF5A055AEFC39408
:10183000024020E4F55A7F0A300802AF45E556C35E
:101840009F4006B208E4F55622300802B2A220A258
:101850000205562290003E12019D000000019000FA
:1018600042E030E01790003EE0FCA3E0FDA3E0FE84
:10187000A3E0FFEC4D4E4F6003121A2A22300308FA
:1018800078747601787B7601D204D205C2067D4059
:101890007C007F011210E4C204D205C2067D407CA8
:1018A000007F010210E4AD07ED4480F596E5962037
:1018B000E7FBAF97EF7F00FEED144480F596E596C9
:1018C00020E7FBAD97ED420722E5E6A2E192035344
:1018D000E6FD753D01AF3D12116B053DE53DC3943D
:1018E0000340F230030343E602228D828C831FEF14
:1018F000600BE59620E7FBE597F0A380F1E59620E5
:10190000E7FBEB4420F596E597F022AD23E4FB7A64
:1019100001F9F81201428F258E248D238C227FFF3E
:10192000C2098FA33009FDAF5922C0E0C0D075D0E5
:1019300000C006C0071218291219BF120003C2CF37
:10194000D007D006D0D0D0E032A8051FEF600BE55D
:101950009620E7FBE597F20880F1E59620E7FBEBA0
:101960004420F596E597F222E4F544AF440544EFB0
:10197000C394FF500FE4F549AF490549EFC394FF05
:1019800050E980F422A8051FEF600AE59620E7FBE6
:10199000A6970880F2E59620E7FBEB4420F596A693
:1019A0009722786DE6B401167868A60308A60208A7
:1019B000A60108A60408A605087602E408F622E5B2
:1019C0004345426014E5431543AE4270021542643C
:1019D000014E7005AF4612002722900094E54CF0AE
:1019E000A3E54DF0A3E54EF07B017A0079787D17F1
:1019F0007C0002159343B283E4F5B943B980121910
:101A00006843B940121968E5B930E5FB75A90222AF
:101A1000E4F5C8538ECFC39FFFE49EF5CB8FCA7405
:101A2000FFF5CDF5CCD2ADD2CA22900057E07011AF
:101A300004F0A3A3E0FAA3E0F912021EE490005719
:101A4000F0228D828C83AE071FEE600CE59620E7B6
:101A5000FBE493F597A380EE228D828C83AE071F63
:101A6000EE600BE59620E7FBE0F597A380EF2212EE
:101A70001968D293C295121968D295121968121971
:101A800068021968E4FF121BA5786D76057596113A
:101A9000759720E59620E7FB22A805AE071FEE60AC
:101AA0000BE59620E7FBE6F5970880EF22A805AE48
:101AB000071FEE600BE59620E7FBE2F5970880EF45
:101AC00022AE05EF4440FF121920E4FF121920AFA7
:101AD00006021920900058EBF0A3EAF0A3E9F09079
:101AE0000042E04401F022EF4420FF121920E4FFFD
:101AF0001219207FFF12192022785DE6C39402405C
:101B0000087F0512179C1214D62243A40D43A53456
:101B100043A60C75E10275E2402275A160E4F5F878
:101B200075A217D2AED2F822C2931219683093056B
:101B30007F0112002722759691E59620E7FBE59735
:101B4000A2E422759691E59620E7FBE597A2E222B2
:101B5000759691E59620E7FBE597A2E122759691AF
:101B6000E59620E7FBE597A2E522759694E5962099
:101B7000E7FBE597A2E622759691E59620E7FBE55F
:101B8000971322759694E59620E7FBE5971322308C
:101B9000FF0785A359D209C2FF32786D760143D77A
:101BA0008043D7402275960E8F97E59620E7FB225B
:101BB000759686E59620E7FBAF9722759682E596A7
:101BC00020E7FBAF9722759684E59620E7FBAF9759
:101BD0002275968EE59620E7FBAF9722759696E5DF
:101BE0009620E7FBAF9722900019E0C330E601D3BF
:101BF000228E428F438D4622785EE6FF02179C7F3D
:101C0000171218A622221A03530069006C006900FB
:101C100063006F006E0020004C00610062007300E2
:101C20002203550053004200580070007200650006
:101C300073007300200044006500760069006300B3
:101C400065000A0330003000300035001201100139
:101C500000000040C410000000010102030109025D
:101C6000200001010080320904000002FF00000092
:101C7000070581024000000705010240000004033F
:041C80000904000053
:00000001FF
