:020000040000FA
:1000000002122FE55F6003D2A3220550E550AE4FE8
:100010007002054F14C39405EE648094804007E499
:10002000F54FF550B2A3228F5F2222021B268F4D7F
:0200300022228A
:10003300021D87759691E59620E7FBE597A2E422DA
:10004300020CF7BB010689828A83E0225002E72271
:10005300BBFE02E32289828A83E49322BB010CE57F
:100063008229F582E5833AF583E0225006E9258269
:10007300F8E622BBFE06E92582F8E222E58229F5AD
:1000830082E5833AF583E49322BB010689828A835E
:10009300F0225002F722BBFE01F322F8BB010DE56B
:1000A3008229F582E5833AF583E8F0225006E925B3
:1000B30082C8F622BBFE05E92582C8F222BB010AEB
:1000C30089828A83E0F5F0A3E022500687F009E7EE
:1000D3001922BBFE07E3F5F009E3192289828A831B
:1000E300E493F5F074019322BB0110E58229F582B4
:1000F300E5833AF583E0F5F0A3E0225009E9258290
:10010300F886F008E622BBFE0AE92582F8E2F5F05C
:1001130008E222E5832AF583E993F5F0A3E9932224
:10012300BB010789828A8302025C500B09C5F02751
:10013300F7C5F01937F722BBFE0D09F8E325F0F3F5
:10014300C5F019E338F322F889828A837401932571
:10015300F0C5F0F8E4933822BB010A89828A83F060
:10016300E5F0A3F0225006F709A7F01922BBFE061B
:10017300F3E5F009F31922E88FF0A4CC8BF0A42C5B
:10018300FCE98EF0A42CFC8AF0EDA42CFCEA8EF0A2
:10019300A4CDA8F08BF0A42DCC3825F0FDE98FF089
:1001A300A42CCD35F0FCEB8EF0A4FEA9F0EB8FF080
:1001B300A4CFC5F02ECD39FEE43CFCEAA42DCE3508
:1001C300F0FDE43CFC22ECF0A3EDF0A3EEF0A3EF92
:1001D300F022A8828583F0D083D0821201EC120131
:1001E300EC1201EC1201ECE473E493A3C583C5F0B4
:1001F300C583C8C582C8F0A3C583C5F0C583C8C578
:1002030082C822BB010789828A8302027B5005E9E7
:10021300F8020272BBFE05E9F802028489828A832E
:1002230002028DBB010DE58229F582E5833AF58350
:1002330002027B5007E92582F8020272BBFE07E93E
:100243002582F8020284E58229F582E5833AF58363
:1002530002028D8A838982E473C5F0F8A3E028F053
:10026300C5F0F8E582158270021583E038F022E6C6
:10027300FB08E6FA08E6F922E0FBA3E0FAA3E0F9BB
:1002830022E2FB08E2FA08E2F922E493FB74019309
:10029300FA740293F9228F277528FD7867E6C41351
:1002A30054036402600302037608E6047003020346
:1002B3005724FD60030203767869E6FE08E6FFEE45
:1002C3006003020376EF24FE604324FE605824FC9F
:1002D300606D24076003020376900042E030E0087B
:1002E30054FEF04402F08007900042E054FDF07F9A
:1002F300011215BD121D6390003E1201D5000000CE
:1003030008900042E030E1684401F0806390003ED1
:10031300E0FCA3E0FDA3E0FEA3E04410FFEC9000AB
:100323003E1201C9804A90003EE0FCA3E0FDA3E039
:10033300FEA3E04420FFEC90003E1201C980317B14
:10034300FF7A1F7931754300754402C204E4FF123A
:100353000DAE801C7869B6371A08B60B167BFF7A88
:100363001F7930754300754401C204E4FF120DAEDA
:10037300E4F528E5287021900042E030E017900072
:100383003EE0FCA3E0FDA3E0FEA3E0FFEC4D4E4FF7
:100393006003121C26AF28227867E6648070330856
:1003A300E66406600302045F08E6FC08E6FDEC640D
:1003B30003600302045FAF05EF64EE600302045FB2
:1003C3007BFF7A1E7933901E3393754300F5440205
:1003D30004557867E664C0703608E66401703078C7
:1003E3006CE6640418467027F529752A28786DE6AB
:1003F300FE08E6FFD3E52A9FE5299E40048E298F58
:100403002A7BFF7A1E7945852943852A44804378D0
:1004130067E664C1704608E664017040786BE6FEE7
:1004230008E6FF64054E6004EF4E703075290075D1
:100433002A92786DE6FE08E6FFD3E52A9FE5299E1A
:1004430040048E298F2A7BFF7A1E796D8529438587
:100453002A44C204E4FF120DAEE4F528AF2822902B
:100463000093EBF0A3EAF0A3E9F090001112005F10
:10047300900043F0E49000A0F09000A0E0FF7C0027
:100483007BFF24FDF9EC341DFA120046FEEF7B01DD
:100493002400F9EC3400FAEE12008C9000A0E00482
:1004A300F0E0B412D4E49000A0F09000A0E0FF903C
:1004B3001E0F93FE74122FF582E43400F583EEF0E1
:1004C3009000A0E004F0E0B420E0900093E0FBA3F0
:1004D300E0FAA3E0F91200C0FAE5F0FFEAFE9000AB
:1004E30008EEF0A3EFF0900093A3E0FA900002125D
:1004F30000EBFAE5F0FFEAFE90000AEEF0A3EFF05E
:1005030090003274FFF0A3741EF0A3742FF09000D8
:1005130093A3E0FAA3E0900004120226900035EBC7
:10052300F0A3EAF0A3E9F0900093E0FBA3E0FAA3C1
:10053300E0F9900007120226900038EBF0A3EAF0EE
:10054300A3E9F0900093E0FBA3E0FAA3E0F99000A5
:100553000A12022690003BEBF0A3EAF0A3E9F09025
:100563000093E0FBA3E0FAA3E0F990000D12005F13
:10057300FFC394FA500590001AEFF0900093E0FB4C
:10058300A3E0FAA3E0F990000F1200EBFAE5F0FF05
:10059300EAFE90000CEEF0A3EFF0900093A3E0FAD4
:1005A30090000E12005F900019F09000967401F015
:1005B300A37400F0A37400F0A37401F0A37400F01B
:1005C300A37412F0A37401F0A37400F0A37432F0C7
:1005D300A37404F0E4900057F090003E1201D5009C
:1005E300000000E4900042F07B017A00799602104B
:1005F3006453D9BF121BF112002A121CF5E4FFFE4B
:10060300121C0C121D13121D05D2AF7F0112002EF6
:100613007B007A0079081204627BFF7A1679C8128C
:100623001CD07F0212002E7D027F647E00121DE922
:1006330012189CE4FDFFFE121DE97F0312002EE554
:100643006014603314700302070114700302071B64
:100653001470030207382404600302074EC2921287
:100663001C6B2091FD7F16121B1C2091FDE4FD7F66
:1006730002121CBD0207157F14121B1C2091FDE5FD
:1006830060B401BB2091FD7FFF121B1CEF3395E08B
:100693008F3EF53DF53CF53BFEAC3B121B07E4FCFE
:1006A300FDFEE53E2FF53EEE353DF53DED353CF5E2
:1006B3003CEC353BF53BAF3EAE3DFC121B07E4FC87
:1006C300FDFEE53E2FF53EEE353DF53DED353CF5C2
:1006D3003CEC353BF53BAF3EAE3DAD3CFC90006C96
:1006E3001201C9900070E07F03B402027F00900002
:1006F30070EFF09000677401F012193880817F1653
:10070300121B1C2091FD7B017A007971121A4E1283
:1007130019387560010206427F16121B1C2091FDD9
:1007230090007FE0FF2488F582E43400F583E0FD48
:10073300121CBD80107F16121B1C2091FD90007FA0
:10074300E0FF1214F7756002020642E4F560020648
:10075300428F2A8D2B8A2C8B2DE52A6401705FE54D
:100763002B705B90005BE0FBA3E0FAA3E0F9E52CC0
:10077300852DF0120123C3900064E0952DFF9000B6
:1007830063E0952CFEF0A3EFF04E6003020861E5F1
:100793002D452C6017E52D543F7011FBFAF9F543F5
:1007A300F544D2047F01120DAE02086190003EE0D1
:1007B300FCA3E0FDA3E0FEA3E04402020859E52AFE
:1007C30064026003020861E52B705E90005EE0FB4B
:1007D300A3E0FAA3E0F9E52C852DF0120123C390E1
:1007E3000062E0952DF0900061E0952CF0C3E52DBB
:1007F3009440E52C9400501190003EE0FCA3E0FDF2
:10080300A3E0FEA3E04404804D900061E0FEA3E07A
:10081300FF4E704AEF543F7045FBFAF9F547F54830
:10082300D2047F021213428035E52BB4F2309000DC
:100833003EE0FCA3E0FDA3E0FEA3E0FFEE4401FEE7
:10084300EC90003E1201C990003EE0FCA3E0FDA342
:10085300E0FEA3E04404FFEC90003E1201C99000C7
:1008630042E030E01790003EE0FCA3E0FDA3E0FE91
:10087300A3E0FFEC4D4E4F6003121C26E4FEFF2263
:10088300E4FDFC752BFF7867E66480600302099042
:100893007869E6FE08E6F527EEFFE4600302096ED9
:1008A300EF24FE602A14604E2402600302096EE501
:1008B30027600302096E7885860308E6FA08E6F9DD
:1008C3008B288A29F52A1200467C00FD02096EE571
:1008D30027600302096E7888860308E6FA08E6F9BA
:1008E3008B288A29F52A9000021200EBFAE5F0FF23
:1008F300EAFCEFFD8075788B860308E6FA08E6F9D3
:1009030075F003E527A4F58285F0831202268B2870
:100913008A29892AE527700BFC7D04786FE65480C9
:10092300F68048786BE6FE08E6FF4E600AEF64093E
:100933007003EE64047034E527C3786496502CABDF
:1009430028AA29A92A90000112005F7C00FD120049
:1009530046547FFF786FE654804FFFF67401252AD3
:10096300F52AE43529F529EF4480F6ED4C601E782D
:100973006DE6FE08E6FFD3ED9FEC9E4004AC06ADAA
:1009830007AB28AA29A92A121B9EE4F52BAF2B2219
:100993007876E61392007873E6FE08E6FFC3944088
:1009A300EE940040047F4080008F27852728786FCE
:1009B300E6FF547F64017068EF30E726088603087A
:1009C300E6FA08E6F9C2067D02E4FF1213C0787264
:1009D300740226F618E436F615271527786FE654C1
:1009E3007FF6E4F529E527C313FFE529C39F504D9F
:1009F3007870860308E6FA08E6F9C2067D01E4FF8B
:100A03001213C07872740126F618E436F67BFF7A67
:100A13001F7933C2067D01E4FF1213C0052980C587
:100A23007870860308E6FA08E6F9C206AD27E4FF04
:100A33001213C07872E52726F618E436F67876E6C0
:100A430054FBF6C37874E69528FF18E69400FEF687
:100A530008EFF64E701EE528644060187596117510
:100A6300970AE59620E7FB78757601E4786FF678C8
:100A730076F6800B759611759702E59620E7FB30A5
:100A83000014E528FB7A007873E6F52E08E6F52FC7
:100A9300E4FDFF12075422C2007F01121D9D121DA7
:100AA300565015759694E59620E7FB5397BFE59648
:100AB30020E703020B6780F6121D7B4003020B67DE
:100AC300121DF78F267883E66403600A08E6440262
:100AD300F67527F9806DC37882E6952618E69400AB
:100AE300500E7883760108E64402F67527F28053A8
:100AF300787E860308E6FA08E6F9AD267F01121729
:100B03000F7884E654FDF6AF267E00C37882E69F15
:100B1300F618E69EF618EF26F618EE36F67882E615
:100B230018466006E5266440600678837601D200A5
:100B3300E4F527759694E59620E7FB5397FEE59633
:100B430020E7FB7884E630E01B30000354FEF6E533
:100B530026FB7A007881E6F52E08E6F52FAD277F90
:100B630002120754227526FDE4FF121D9D121D2F4C
:100B73004005120036501D759611E4F597E5962051
:100B8300E7FB759611759780E59620E7FB787576F8
:100B930001E408F6121D6F4003020C227876E6FF8B
:100BA30030E30280777875E664017062786FF6123D
:100BB300161A7F671202998F26E526B4FD0F786710
:100BC300E6FFC413540370051214928F26E4FF1238
:100BD3001D9DE5267033786EE61846700D759611E7
:100BE300759748E59630E73780F975961175974004
:100BF300E59620E7FB7867E620E7247875E664034B
:100C0300601D08E64408F68016121C808011787572
:100C1300E6B4030512110880067876E64402F678F6
:100C230075E6B40208121D3C40031209932275278E
:100C3300FF7869E6FC08E6FDEC6003020CF47867D4
:100C4300E6541F6003020CF4786EE6184660030254
:100C53000CF418E618466003020CF47865E66404A5
:100C63007048ED4C60197888860308E6FA08E6F9BF
:100C730090000512005F786A66700218E670727859
:100C83006AE67863F67888860308E6FA08E6F99058
:100C9300000512005F786A66700218E67050D20091
:100CA300121A797F0612199A80447865E6640670F1
:100CB300407869E6FE08E6FF4E60177888860308E9
:100CC300E6FA08E6F990000512005FB50723E4B5DC
:100CD300061F786AE67863F6786AE61846700A7F34
:100CE3000412199A121AC58005C200121A79E4F582
:100CF30027AF2722C0E0C0F0C083C082C0D075D028
:100D030000C000C001C002C003C004C005C006C0CB
:100D130007121DA88F22121DB38F23121DBE8F240D
:100D2300121DC98F25E52230E3287876E6FF30E1EE
:100D33000618E66403600AEF30E2097875E6B40248
:100D4300034323017884E630E10818E6B403034340
:100D53002402E52230E20C121867E5C9A2E640033B
:100D6300432201E52230E103121DF0E52230E003C6
:100D7300121D21E52330E103120F14E52430E103B2
:100D8300120A9AE52330E003120B68AF25121D9D6A
:100D9300D007D006D005D004D003D002D001D000B4
:100DA300D0D0D082D083D0F0D0E0328F3F8B408A36
:100DB300418942E53F600814600580007FFC22E51D
:100DC3003F600A7865E6640660037FF722E53F75B6
:100DD300F007A42470F9AF01EF2405F8E6FE6401DF
:100DE3006009EE7FFEB405027FFB22E5E6A2E192F5
:100DF3000553E6FDAA41A942A807A64008A6020892
:100E0300A601EF2403F8A64308A644EF2405F876C9
:100E130002A204E4335401FEEF2406F8E654FE4E26
:100E2300F6E53F14600B04702C7876E64404F680F4
:100E330024D3E5449440E543940040047D4080047A
:100E4300AF44AD077877860308E6FA08E6F9D206D9
:100E53007F011213C030050343E6027F002275278A
:100E6300FF786EE6640218466003020F11786AE6A3
:100E730018466003020F117867E6FF20E703020FAD
:100E8300117865E6C394045003020F11E4F51AF5D3
:100E93001BEF541F14601814602324027061786CD4
:100EA300E61846705A121DDF5052431A01804DC393
:100EB300786CE6940118E694005044803F786BE622
:100EC300FE08E6FFAC06547F4C70087865E6B40470
:100ED3000280297865E6B40626EF247F6012248019
:100EE300701D7883E6B40606751A01751B00800C25
:100EF300787CE6B40606751A01751B00E4F527E550
:100F030027700BFB7A00791A7D02FC121B9EAF2718
:100F1300227F01121D9D121D495010759611E4F593
:100F230097E59620E703020FBB80F6787CE6640220
:100F33006003020FBB787AE6FE08E6FFD39440EE27
:100F4300940040047F4080008F267E00C3787BE6B8
:100F53009FF618E69EF618EF26F618EE36F6787D1D
:100F6300E6139200787AE6FE08E6FFD39400EE9447
:100F7300004024D3EF9440EE940040047D4080046D
:100F8300787BE6FD7877860308E6FA08E6F9D20669
:100F93007F011213C08009787DE654FEF6187601AE
:100FA300300015E526FB7A00787AE6F52E08E6F59B
:100FB3002FE4FD7F01120754227527FF786EE61890
:100FC3004660030210617867E6541F24FE60030243
:100FD3001061786AE618466003021061786BE6FEDA
:100FE30008E6547FFF4E700D7865E6C39404400510
:100FF300E4F5278069C3EF9403EE940050607865AD
:10100300E664067059F527786CE6547FFF121D9D40
:10101300786CE630E70B759611759740E59620E7F7
:10102300FB786CE620E718759694E59620E7FB536A
:1010330097DFE59620E7FB439780E59620E7FB786B
:101043006CE6247F600F248070147883E664036069
:101053000D76018009787CE6640260027601AF2791
:10106300228B3F8A40894153E6FD120031E4FF742D
:10107300632FF8E4F60FBF2BF6AB3FAA40A941124A
:1010830002067885A60308A60208A601AB3FAA407C
:10109300A9419000031202267888A60308A6020835
:1010A300A601AB3FAA40A941900006120226788B05
:1010B300A60308A60208A601AB3FAA40A9419000D7
:1010C3000912005F7864F653A98F43D72075960100
:1010D300759708E59620E7FB75960B75970FE596D0
:1010E30020E7FB121D92E5C9A2E67865500476035A
:1010F3008002760143E602759601759701E5962015
:10110300E7FB7F00227876E6139200121DD48F2727
:10111300C37874E69F18E69400500E78757601083C
:10112300E64402F67528F2805A7870860308E6FAD8
:1011330008E6F9AD27E4FF12170FAF277E00787298
:10114300EF26F618EE36F6C37874E69FFF18E69E90
:10115300FEF608EFF6E4F528EF4E701CE527644031
:101163006016759611759748E59620E7FB787576B6
:101173000108E654FEF6800B759611759740E596C7
:1011830020E7FB300015E527FB7A007873E6F52EA0
:1011930008E6F52FAD28E4FF120754227527FF78E0
:1011A3006EE61846600302122C7867E6541F24FE8D
:1011B3007077786BE6FE08E6547FFF4E700D786516
:1011C300E6C394044005E4F527805EC3EF9403EE81
:1011D30094005055786AE61846704E7865E66406C2
:1011E3007047F527786CE6547FFF121D9D786CE6F7
:1011F30030E70B759611759710E59620E7FB786C31
:10120300E620E710759694E59620E7FB439720E5E3
:101213009620E7FB786CE6247F600A2480700A78C6
:101223008376068004787C7606AF2722787FE4F6FF
:10123300D8FD75818D0212760205F4E493A3F8E4D8
:1012430093A34003F68001F208DFF48029E493A31B
:10125300F85407240CC8C333C4540F4420C8834034
:1012630004F456800146F6DFE4800B010204081003
:10127300204080901673E47E019360BCA3FF543F2B
:1012830030E509541FFEE493A360010ECF54C0253B
:10129300E060A840B8E493A3FAE493A3F8E493A32B
:1012A300C8C582C8CAC583CAF0A3C8C582C8CAC58F
:1012B30083CADFE9DEE780BEAE07E4FB121D9D3083
:1012C3000213A80674107E00088005C333CE33CE04
:1012D300D8F9FF8013AF0674207E00A807088005A5
:1012E300C333CE33CED8F9FFD3ED9FEC9E500343E7
:1012F30003803003034303403001204303203002C3
:1013030003430304759611759740E59620E7FB7533
:1013130096128B97E59630E72580F97596147597A5
:1013230080E59620E7FB7596158B97E59620E7FBFE
:1013330020020B759612E4F597E59620E7FB228BC6
:10134300448A458946EF600924FE600580007FFCDE
:1013530022EF600A7865E6640660037FF722EF7583
:10136300F007A42470F9AF01EF2405F8E6FE640149
:101373006009EE7FFEB405027FFB22E5E6A2E1925F
:101383000553E6FDAA45A946A807A64408A60208F0
:10139300A601EF2403F8A64708A648EF2405F8762C
:1013A30003A204E4335401FEEF2406F8E654FE4E90
:1013B300F654F7F630050343E6027F00228F458D8E
:1013C300468B478A488949E59620E7FBE545442053
:1013D300F596E5471460132403601A146020147013
:1013E30026AD49AF46121C95801DAC48AD49AF46AA
:1013F300121C558012AD49AF46121CA98009AC4896
:10140300AD49AF46121C3E30061CE545D39400405F
:1014130015AF45121D9D759691E59620E7FB439701
:1014230001E59620E7FB228F2A8D2BE52BB4051AC5
:1014330090003EE0FCA3E0FDA3E0FEA3E04480FFB8
:10144300EC90003E1201C9121D63E52BB406179000
:10145300003EE0FCA3E0FDA3E0FEA3E04440FFEC7C
:1014630090003E1201C9E52BC394065003121D637D
:10147300900042E030E01790003EE0FCA3E0FDA3C3
:10148300E0FEA3E0FFEC4D4E4F6003121C2622E466
:10149300FF7868E6B40C0050589014A3F82828731A
:1014A3000214C70214CC0214F40214D10214F4027D
:1014B30014D60214DB0214F40214E00214E502143D
:1014C300EA0214EF120E61802A120FBC802512115A
:1014D3009F802012155B801B1208838016121756FB
:1014E3008011120C31800C1218298007121969809F
:1014F300027FFF22AB077F16121B1C2091FDEB64BA
:10150300036003BB04077F02121CE3AC07EB146008
:101513000F14600E14600F1460172404701F800DE5
:1015230080167F6280147D017F02121CBD7F608064
:10153300097D027F02121CBD7F61121B1C2091FDDD
:10154300EB64036003BB0407AD047F02121CBD7F81
:1015530014121B1C2091FD227527FF7869E6FE08F3
:10156300E6FFC39480EE9400504D786EE618467003
:10157300467867E6541F703F786CE61846703878F3
:1015830065E6B4030BEF4E60197F0412199A8012BB
:101593007865E6B4040F786AE6184670057F03128F
:1015A300199AE4F527E527700EF596786AE64480E4
:1015B300F597E59620E7FBAF27228F2BE4F52DE582
:1015C3002B6005C394034005752DFC8041E5E6A21D
:1015D300E1920153E6FDE52B75F007A42470F98928
:1015E3002CE52C2405F8E664016023E52B24FE603A
:1015F3000A04700C7F011218D080057F01121904B0
:10160300E52C2405F87601E52C2406F8E4F63001F0
:101613000343E602AF2D22752767A9277A007B00D3
:101623007D08E4FF12170FE5272402F8E6FC08E61D
:10163300FAECFFEAFEE5272402F8A60608A607E56A
:10164300272404F8E6FC08E6FAECFFEAFEE5272483
:1016530004F8A60608A607E5272406F8E6FC08E62C
:10166300FAECFFEAFEE5272406F8A60608A60722F9
:10167300120810C4EA61FF1EFFFF1F0DFF1F282081
:1016830080010000015F00C188016200015E00016A
:101693004D03024F0000C109016100016000C10751
:1016A3005700651702002D2D2D00000000000400D7
:1016B3000000000000000000000002520017045A5E
:1016C30000000000001219CA8F428E418D408C3FEA
:1016D300E5425410FFE4FEFDFCEF6008D207121B45
:1016E300D6756002E5425402FFEF600A900070E095
:1016F300B401037402F0E5425404FFE4FEFDFCEF81
:10170300600990007EE0F560121BD6228F298D2A96
:101713008B2B8A2C892DE52AD394004035E596201E
:10172300E7FBE52944E0F596E52B146011240360FB
:101733001824FE701DAD2DAB29AF2A021B81AC2CE2
:10174300AD2DAB29AF2A021AE6AD2DAB29AF2A1274
:101753001B45227FFF786CE61846703D18E6184655
:101763007037786EE664011846702E7867E6FE30AF
:10177300E727541F70237865E6B404087BFF7A1FBC
:101783007933800C7865E6B4060F7B007A007963C1
:101793007D017C00121B9EE4FF22900093EBF0A3DB
:1017A300EAF0A3E9F0900098E0FBA3E0FAA3E0F9E4
:1017B30090005EEBF0A3EAF0A3E9F0E4F5F0120188
:1017C3005B900061ECF0A3EDF0900093E0FBA3E0ED
:1017D300FAA3E0F98C478D48D2047F021213422208
:1017E300900093EBF0A3EAF0A3E9F0900098E0FBFC
:1017F300A3E0FAA3E0F990005BEBF0A3EAF0A3E91E
:10180300F0E4F5F012015B900063ECF0A3EDF090CF
:101813000093E0FBA3E0FAA3E0F98C438D44D204E8
:101823007F01120DAE22786BE6FE08E67DFFC394BE
:1018330001EE9400502B786EE6640118467022780E
:101843006AE61846701B7867E6B481157865E6B4D6
:10185300060F7BFF7A1F79337D017C00121B9EE408
:10186300FDAF052278757601787C76067883760657
:1018730075960F75978FE59620E7FB75960175971B
:1018830001E59620E7FB75960B75970FE59620E724
:10189300FB7F0312199A0219F7C292121C6BD292A0
:1018A300C294121C6BD294C2922091FD7F16121B1C
:1018B3001C2091FD7D4F7F02121CBD7F02121CE391
:1018C300EF547F644F60057F0312002722121D9D92
:1018D300759611759708E59620E7FB759691E59641
:1018E30020E7FBE59720E3F3759611759708E596D6
:1018F30020E7FB759691E59620E7FBE59720E3F358
:1019030022121D9D759614759710E59620E7FB75B9
:101913009694E59620E7FBE59720E4F37596147516
:101923009710E59620E7FB759694E59620E7FBE58F
:101933009720E4F322900067E560F0900098E55764
:10194300F0A3E558F0A3E559F07B017A0079657DB2
:10195300177C001217E3900070E06003B403069055
:1019630000707401F0227FFF786CE6FE786AE6FD72
:10197300EEC3940150207865E6B4061A786EE61833
:10198300467013ED70107867E6541FFEBE0107C260
:1019930000121A79E4FF228F287865E6F529C394AB
:1019A300054009E52894055003121AC5E528B40536
:1019B300047866A6297865A628E52965286007AD19
:1019C30028AF2912142A2290003EE0FCA3E0FDA3D5
:1019D300E0FEA3E0FF9000931201C990003E1201C4
:1019E300D500000000900093E0FCA3E0FDA3E0FE1F
:1019F300A3E0FF2290003E1201D500000001121D5A
:101A030063900042E030E01790003EE0FCA3E0FD6D
:101A1300A3E0FEA3E0FFEC4D4E4F6003121C262211
:101A2300AF620562EFC394024020E4F5627F0A309F
:101A33000802AF4DE55EC39F4006B208E4F55E229F
:101A4300300802B2A220A202055E228B3F8A40899F
:101A5300417F20121B1C7F0A121B1CE4FE7FFF1216
:101A63001B1CAB3FAA40A9418E82758300EF120075
:101A73009E0EBE0BE822300008787C7601788376D0
:101A830001D201D202C2037D407C007F011212BB4E
:101A9300C201D202C2037D407C007F010212BBADB2
:101AA30007ED4480F596E59620E7FBAF97EF7F00BF
:101AB300FEED144480F596E59620E7FBAD97ED42E5
:101AC3000722E5E6A2E1920053E6FD752A01AF2A5B
:101AD3001215BD052AE52AC3940340F230000343DF
:101AE300E602228D828C831FEF600BE59620E7FBD5
:101AF300E597F0A380F1E59620E7FBEB4420F5960C
:101B0300E597F022AD3CE4FB7A01F9F812017A8FF4
:101B13003E8E3D8D3C8C3B7FFFC2098FA33009FD78
:101B2300AF6122C0E0C0D075D000C006C007121A52
:101B330023121BBB120003C2CFD007D006D0D0D0D4
:101B4300E032A8051FEF600BE59620E7FBE597F26F
:101B53000880F1E59620E7FBEB4420F596E597F244
:101B630022E4F54CAF4C054CEFC394FF500FE4F562
:101B730051AF510551EFC394FF50E980F422A805FA
:101B83001FEF600AE59620E7FBA6970880F2E5962B
:101B930020E7FBEB4420F596A697227875E6B4017F
:101BA300167870A60308A60208A60108A60408A6CC
:101BB30005087602E408F622E54B454A6014E54B36
:101BC300154BAE4A7002154A64014E7005AF4E12B2
:101BD300002722900098E554F0A3E555F0A3E556BD
:101BE300F07B017A00797C7D177C0002179D43B25C
:101BF30083E4F5B943B980121B6443B940121B64F3
:101C0300E5B930E5FB75A90222E4F5C8538ECFC3CD
:101C13009FFFE49EF5CB8FCA74FFF5CDF5CCD2AD13
:101C2300D2CA22900057E0701104F0A3A3E0FAA3F4
:101C3300E0F9120256E4900057F0228D828C83AEB5
:101C4300071FEE600CE59620E7FBE493F597A3806E
:101C5300EE228D828C83AE071FEE600BE59620E7A4
:101C6300FBE0F597A380EF22121B64D293C2951277
:101C73001B64D295121B64121B64021B64E4FF12E3
:101C83001D9D78757605759611759760E59620E725
:101C9300FB22A805AE071FEE600BE59620E7FBE6E7
:101CA300F5970880EF22A805AE071FEE600BE596B7
:101CB30020E7FBE2F5970880EF22AE05EF4440FFF3
:101CC300121B1CE4FF121B1CAF06021B1C900058C6
:101CD300EBF0A3EAF0A3E9F0900042E04401F02224
:101CE300EF4420FF121B1CE4FF121B1C7FFF121B7F
:101CF3001C2243A40D43A53443A60C75E10275E2EF
:101D0300402275A160E4F5F875A217D2AED2F8228D
:101D1300C293121B643093057F011200272278655A
:101D2300E6C3940240057F0512199A22759691E540
:101D33009620E7FBE597A2E222759691E59620E7C8
:101D4300FBE597A2E122759691E59620E7FBE597DF
:101D5300A2E522759694E59620E7FBE597A2E62295
:101D6300E4900061F0A3F0A3F0A3F022759691E54F
:101D73009620E7FBE5971322759694E59620E7FBFB
:101D8300E597132230FF0785A361D209C2FF32789A
:101D930075760143D78043D7402275960E8F97E51A
:101DA3009620E7FB22759686E59620E7FBAF972200
:101DB300759682E59620E7FBAF9722759684E596A4
:101DC30020E7FBAF972275968EE59620E7FBAF974A
:101DD30022759696E59620E7FBAF9722900019E0CF
:101DE300C330E601D3228E4A8F4B8D4E227866E6AE
:101DF300FF02199A7F17121AA22212010002000091
:101E03000040C41000000001010203010902200088
:101E130001010080320904000002FF0000000705F1
:101E23008102400000070501024000000403090489
:101E330012034D00530046005400310030003000BF
:101E43000100280000000001040001000000000060
:101E53000000000157494E555342000000000000A6
:101E630000000000000000000000920000000001DC
:101E73000500010088000000070000002A0044005C
:101E83006500760069006300650049006E00740018
:101E9300650072006600610063006500470055003D
:101EA3004900440073000000500000007B00330031
:101EB30043003500450031003400360032002D0068
:101EC30035003600390035002D003400650031003F
:101ED30038002D0038003700360042002D00460040
:101EE3003300460033004400300038004100410015
:101EF3004600310038007D00000000000116035445
:101F03006563686E6F7363616E00013003497465C6
:101F1300726174696F6E3320414453313234362019
:101F23007465737400010A0330303031008000059A
:021F33000000AC
:00000001FF
